{
  "_format": "hh-sol-artifact-1",
  "contractName": "Staking",
  "sourceName": "contracts/Staking.sol",
  "abi": [
    {
      "inputs": [
        {
          "internalType": "address",
          "name": "_tokenAddress",
          "type": "address"
        }
      ],
      "stateMutability": "nonpayable",
      "type": "constructor"
    },
    {
      "anonymous": false,
      "inputs": [
        {
          "indexed": true,
          "internalType": "address",
          "name": "staker",
          "type": "address"
        },
        {
          "indexed": false,
          "internalType": "uint256",
          "name": "amount",
          "type": "uint256"
        }
      ],
      "name": "RewardPaid",
      "type": "event"
    },
    {
      "anonymous": false,
      "inputs": [
        {
          "indexed": true,
          "internalType": "address",
          "name": "staker",
          "type": "address"
        },
        {
          "indexed": false,
          "internalType": "uint256",
          "name": "amount",
          "type": "uint256"
        }
      ],
      "name": "Staked",
      "type": "event"
    },
    {
      "anonymous": false,
      "inputs": [
        {
          "indexed": true,
          "internalType": "address",
          "name": "staker",
          "type": "address"
        },
        {
          "indexed": false,
          "internalType": "uint256",
          "name": "amount",
          "type": "uint256"
        }
      ],
      "name": "Unstaked",
      "type": "event"
    },
    {
      "inputs": [
        {
          "internalType": "uint256",
          "name": "index",
          "type": "uint256"
        }
      ],
      "name": "getReward",
      "outputs": [],
      "stateMutability": "nonpayable",
      "type": "function"
    },
    {
      "inputs": [],
      "name": "interestRate",
      "outputs": [
        {
          "internalType": "uint256",
          "name": "",
          "type": "uint256"
        }
      ],
      "stateMutability": "view",
      "type": "function"
    },
    {
      "inputs": [
        {
          "internalType": "uint256",
          "name": "value",
          "type": "uint256"
        }
      ],
      "name": "stake",
      "outputs": [],
      "stateMutability": "nonpayable",
      "type": "function"
    },
    {
      "inputs": [],
      "name": "token",
      "outputs": [
        {
          "internalType": "contract IERC20",
          "name": "",
          "type": "address"
        }
      ],
      "stateMutability": "view",
      "type": "function"
    },
    {
      "inputs": [],
      "name": "totalStake",
      "outputs": [
        {
          "internalType": "uint256",
          "name": "",
          "type": "uint256"
        }
      ],
      "stateMutability": "view",
      "type": "function"
    },
    {
      "inputs": [
        {
          "internalType": "uint256",
          "name": "index",
          "type": "uint256"
        }
      ],
      "name": "unstake",
      "outputs": [],
      "stateMutability": "nonpayable",
      "type": "function"
    }
  ],
  "bytecode": "0x60806040523480156200001157600080fd5b50604051620013d3380380620013d38339818101604052810190620000379190620000f8565b806000806101000a81548173ffffffffffffffffffffffffffffffffffffffff021916908373ffffffffffffffffffffffffffffffffffffffff16021790555060006001819055506014600281905550506200012a565b600080fd5b600073ffffffffffffffffffffffffffffffffffffffff82169050919050565b6000620000c08262000093565b9050919050565b620000d281620000b3565b8114620000de57600080fd5b50565b600081519050620000f281620000c7565b92915050565b6000602082840312156200011157620001106200008e565b5b60006200012184828501620000e1565b91505092915050565b611299806200013a6000396000f3fe608060405234801561001057600080fd5b50600436106100625760003560e01c80631c4b774b146100675780632e17de78146100835780637c3a00fd1461009f5780638b0e9f3f146100bd578063a694fc3a146100db578063fc0c546a146100f7575b600080fd5b610081600480360381019061007c9190610cd2565b610115565b005b61009d60048036038101906100989190610cd2565b610305565b005b6100a7610782565b6040516100b49190610d0e565b60405180910390f35b6100c5610788565b6040516100d29190610d0e565b60405180910390f35b6100f560048036038101906100f09190610cd2565b61078e565b005b6100ff610aee565b60405161010c9190610da8565b60405180910390f35b600360003373ffffffffffffffffffffffffffffffffffffffff1673ffffffffffffffffffffffffffffffffffffffff1681526020019081526020016000208054905081108015610167575060008110155b6101a6576040517f08c379a000000000000000000000000000000000000000000000000000000000815260040161019d90610e20565b60405180910390fd5b60006101b23383610b12565b905060008054906101000a900473ffffffffffffffffffffffffffffffffffffffff1673ffffffffffffffffffffffffffffffffffffffff1663a9059cbb33836040518363ffffffff1660e01b815260040161020f929190610e61565b6020604051808303816000875af115801561022e573d6000803e3d6000fd5b505050506040513d601f19601f820116820180604052508101906102529190610ec2565b5042600560003373ffffffffffffffffffffffffffffffffffffffff1673ffffffffffffffffffffffffffffffffffffffff16815260200190815260200160002083815481106102a5576102a4610eef565b5b90600052602060002001819055503373ffffffffffffffffffffffffffffffffffffffff167fe2403640ba68fed3a2f88b7557551d1993f84b99bb10ff833f0cf8db0c5e0486826040516102f99190610d0e565b60405180910390a25050565b600360003373ffffffffffffffffffffffffffffffffffffffff1673ffffffffffffffffffffffffffffffffffffffff1681526020019081526020016000208054905081108015610357575060008110155b610396576040517f08c379a000000000000000000000000000000000000000000000000000000000815260040161038d90610e20565b60405180910390fd5b61040762278d00600460003373ffffffffffffffffffffffffffffffffffffffff1673ffffffffffffffffffffffffffffffffffffffff16815260200190815260200160002083815481106103ee576103ed610eef565b5b9060005260206000200154610c3f90919063ffffffff16565b421015610449576040517f08c379a000000000000000000000000000000000000000000000000000000000815260040161044090610f6a565b60405180910390fd5b60008054906101000a900473ffffffffffffffffffffffffffffffffffffffff1673ffffffffffffffffffffffffffffffffffffffff1663a9059cbb33600360003373ffffffffffffffffffffffffffffffffffffffff1673ffffffffffffffffffffffffffffffffffffffff16815260200190815260200160002084815481106104d7576104d6610eef565b5b90600052602060002001546040518363ffffffff1660e01b81526004016104ff929190610e61565b6020604051808303816000875af115801561051e573d6000803e3d6000fd5b505050506040513d601f19601f820116820180604052508101906105429190610ec2565b506105b3600360003373ffffffffffffffffffffffffffffffffffffffff1673ffffffffffffffffffffffffffffffffffffffff168152602001908152602001600020828154811061059757610596610eef565b5b9060005260206000200154600154610c5590919063ffffffff16565b600181905550600360003373ffffffffffffffffffffffffffffffffffffffff1673ffffffffffffffffffffffffffffffffffffffff168152602001908152602001600020818154811061060a57610609610eef565b5b9060005260206000200160009055600460003373ffffffffffffffffffffffffffffffffffffffff1673ffffffffffffffffffffffffffffffffffffffff168152602001908152602001600020818154811061066957610668610eef565b5b9060005260206000200160009055600560003373ffffffffffffffffffffffffffffffffffffffff1673ffffffffffffffffffffffffffffffffffffffff16815260200190815260200160002081815481106106c8576106c7610eef565b5b90600052602060002001600090553373ffffffffffffffffffffffffffffffffffffffff167f0f5bb82176feb1b5e747e28471aa92156a04d9f3ab9f45f28e2d704232b93f75600360003373ffffffffffffffffffffffffffffffffffffffff1673ffffffffffffffffffffffffffffffffffffffff168152602001908152602001600020838154811061075f5761075e610eef565b5b90600052602060002001546040516107779190610d0e565b60405180910390a250565b60025481565b60015481565b600081116107d1576040517f08c379a00000000000000000000000000000000000000000000000000000000081526004016107c890610ffc565b60405180910390fd5b8060008054906101000a900473ffffffffffffffffffffffffffffffffffffffff1673ffffffffffffffffffffffffffffffffffffffff1663dd62ed3e33306040518363ffffffff1660e01b815260040161082d92919061101c565b602060405180830381865afa15801561084a573d6000803e3d6000fd5b505050506040513d601f19601f8201168201806040525081019061086e919061105a565b10156108af576040517f08c379a00000000000000000000000000000000000000000000000000000000081526004016108a6906110d3565b60405180910390fd5b60008054906101000a900473ffffffffffffffffffffffffffffffffffffffff1673ffffffffffffffffffffffffffffffffffffffff166323b872dd3330846040518463ffffffff1660e01b815260040161090c939291906110f3565b6020604051808303816000875af115801561092b573d6000803e3d6000fd5b505050506040513d601f19601f8201168201806040525081019061094f9190610ec2565b5061096581600154610c3f90919063ffffffff16565b600181905550600360003373ffffffffffffffffffffffffffffffffffffffff1673ffffffffffffffffffffffffffffffffffffffff168152602001908152602001600020819080600181540180825580915050600190039060005260206000200160009091909190915055600460003373ffffffffffffffffffffffffffffffffffffffff1673ffffffffffffffffffffffffffffffffffffffff168152602001908152602001600020429080600181540180825580915050600190039060005260206000200160009091909190915055600560003373ffffffffffffffffffffffffffffffffffffffff1673ffffffffffffffffffffffffffffffffffffffff1681526020019081526020016000204290806001815401808255809150506001900390600052602060002001600090919091909150553373ffffffffffffffffffffffffffffffffffffffff167f9e71bc8eea02a63969f509818f2dafb9254532904319f9dbda79b67bd34a5f3d82604051610ae39190610d0e565b60405180910390a250565b60008054906101000a900473ffffffffffffffffffffffffffffffffffffffff1681565b600080610b83600560008673ffffffffffffffffffffffffffffffffffffffff1673ffffffffffffffffffffffffffffffffffffffff1681526020019081526020016000208481548110610b6957610b68610eef565b5b906000526020600020015442610c5590919063ffffffff16565b90506000610c326301e13380610c246064610c16600360008b73ffffffffffffffffffffffffffffffffffffffff1673ffffffffffffffffffffffffffffffffffffffff1681526020019081526020016000208981548110610be857610be7610eef565b5b9060005260206000200154610c0860025489610c6b90919063ffffffff16565b610c6b90919063ffffffff16565b610c8190919063ffffffff16565b610c8190919063ffffffff16565b9050809250505092915050565b60008183610c4d9190611159565b905092915050565b60008183610c63919061118d565b905092915050565b60008183610c7991906111c1565b905092915050565b60008183610c8f9190611232565b905092915050565b600080fd5b6000819050919050565b610caf81610c9c565b8114610cba57600080fd5b50565b600081359050610ccc81610ca6565b92915050565b600060208284031215610ce857610ce7610c97565b5b6000610cf684828501610cbd565b91505092915050565b610d0881610c9c565b82525050565b6000602082019050610d236000830184610cff565b92915050565b600073ffffffffffffffffffffffffffffffffffffffff82169050919050565b6000819050919050565b6000610d6e610d69610d6484610d29565b610d49565b610d29565b9050919050565b6000610d8082610d53565b9050919050565b6000610d9282610d75565b9050919050565b610da281610d87565b82525050565b6000602082019050610dbd6000830184610d99565b92915050565b600082825260208201905092915050565b7f496e646578206f7574206f6620626f756e647300000000000000000000000000600082015250565b6000610e0a601383610dc3565b9150610e1582610dd4565b602082019050919050565b60006020820190508181036000830152610e3981610dfd565b9050919050565b6000610e4b82610d29565b9050919050565b610e5b81610e40565b82525050565b6000604082019050610e766000830185610e52565b610e836020830184610cff565b9392505050565b60008115159050919050565b610e9f81610e8a565b8114610eaa57600080fd5b50565b600081519050610ebc81610e96565b92915050565b600060208284031215610ed857610ed7610c97565b5b6000610ee684828501610ead565b91505092915050565b7f4e487b7100000000000000000000000000000000000000000000000000000000600052603260045260246000fd5b7f4c6f636b696e6720706572696f64206e6f74206f766572000000000000000000600082015250565b6000610f54601783610dc3565b9150610f5f82610f1e565b602082019050919050565b60006020820190508181036000830152610f8381610f47565b9050919050565b7f416d6f756e74206f6620746f6b656e73206d757374206265206772656174657260008201527f207468616e203000000000000000000000000000000000000000000000000000602082015250565b6000610fe6602783610dc3565b9150610ff182610f8a565b604082019050919050565b6000602082019050818103600083015261101581610fd9565b9050919050565b60006040820190506110316000830185610e52565b61103e6020830184610e52565b9392505050565b60008151905061105481610ca6565b92915050565b6000602082840312156110705761106f610c97565b5b600061107e84828501611045565b91505092915050565b7f416c6c6f77616e6365206973206e6f7420656e6f756768000000000000000000600082015250565b60006110bd601783610dc3565b91506110c882611087565b602082019050919050565b600060208201905081810360008301526110ec816110b0565b9050919050565b60006060820190506111086000830186610e52565b6111156020830185610e52565b6111226040830184610cff565b949350505050565b7f4e487b7100000000000000000000000000000000000000000000000000000000600052601160045260246000fd5b600061116482610c9c565b915061116f83610c9c565b92508282019050808211156111875761118661112a565b5b92915050565b600061119882610c9c565b91506111a383610c9c565b92508282039050818111156111bb576111ba61112a565b5b92915050565b60006111cc82610c9c565b91506111d783610c9c565b92508282026111e581610c9c565b915082820484148315176111fc576111fb61112a565b5b5092915050565b7f4e487b7100000000000000000000000000000000000000000000000000000000600052601260045260246000fd5b600061123d82610c9c565b915061124883610c9c565b92508261125857611257611203565b5b82820490509291505056fea2646970667358221220bd3378dd3679d5b9e191513c356341363c2e46f850adb0767f789442a17a623264736f6c63430008180033",
  "linkReferences": {},
  "deployedLinkReferences": {}
}