{
  "_format": "hh-sol-artifact-1",
  "contractName": "Staking",
  "sourceName": "contracts/Staking.sol",
  "abi": [
    {
      "inputs": [
        {
          "internalType": "address",
          "name": "_tokenAddress",
          "type": "address"
        }
      ],
      "stateMutability": "nonpayable",
      "type": "constructor"
    },
    {
      "anonymous": false,
      "inputs": [
        {
          "indexed": true,
          "internalType": "address",
          "name": "staker",
          "type": "address"
        },
        {
          "indexed": false,
          "internalType": "uint256",
          "name": "amount",
          "type": "uint256"
        }
      ],
      "name": "RewardPaid",
      "type": "event"
    },
    {
      "anonymous": false,
      "inputs": [
        {
          "indexed": true,
          "internalType": "address",
          "name": "staker",
          "type": "address"
        },
        {
          "indexed": false,
          "internalType": "uint256",
          "name": "amount",
          "type": "uint256"
        }
      ],
      "name": "TokenStaked",
      "type": "event"
    },
    {
      "anonymous": false,
      "inputs": [
        {
          "indexed": true,
          "internalType": "address",
          "name": "staker",
          "type": "address"
        },
        {
          "indexed": false,
          "internalType": "uint256",
          "name": "amount",
          "type": "uint256"
        }
      ],
      "name": "TokenUnstaked",
      "type": "event"
    },
    {
      "inputs": [],
      "name": "getStakeInfo",
      "outputs": [
        {
          "internalType": "uint256",
          "name": "",
          "type": "uint256"
        },
        {
          "internalType": "uint256",
          "name": "",
          "type": "uint256"
        },
        {
          "internalType": "uint256[]",
          "name": "",
          "type": "uint256[]"
        },
        {
          "internalType": "uint256[]",
          "name": "",
          "type": "uint256[]"
        }
      ],
      "stateMutability": "view",
      "type": "function"
    },
    {
      "inputs": [],
      "name": "interestRate",
      "outputs": [
        {
          "internalType": "uint256",
          "name": "",
          "type": "uint256"
        }
      ],
      "stateMutability": "view",
      "type": "function"
    },
    {
      "inputs": [
        {
          "internalType": "uint256",
          "name": "value",
          "type": "uint256"
        }
      ],
      "name": "stakeTokens",
      "outputs": [],
      "stateMutability": "nonpayable",
      "type": "function"
    },
    {
      "inputs": [
        {
          "internalType": "address",
          "name": "",
          "type": "address"
        }
      ],
      "name": "stakes",
      "outputs": [
        {
          "internalType": "uint256",
          "name": "totalBalance",
          "type": "uint256"
        },
        {
          "internalType": "uint256",
          "name": "rewards",
          "type": "uint256"
        },
        {
          "internalType": "uint256",
          "name": "lastUpdateTime",
          "type": "uint256"
        }
      ],
      "stateMutability": "view",
      "type": "function"
    },
    {
      "inputs": [],
      "name": "takeRewards",
      "outputs": [],
      "stateMutability": "nonpayable",
      "type": "function"
    },
    {
      "inputs": [],
      "name": "token",
      "outputs": [
        {
          "internalType": "contract IERC20",
          "name": "",
          "type": "address"
        }
      ],
      "stateMutability": "view",
      "type": "function"
    },
    {
      "inputs": [],
      "name": "totalStake",
      "outputs": [
        {
          "internalType": "uint256",
          "name": "",
          "type": "uint256"
        }
      ],
      "stateMutability": "view",
      "type": "function"
    },
    {
      "inputs": [
        {
          "internalType": "uint256",
          "name": "index",
          "type": "uint256"
        }
      ],
      "name": "unstakeTokens",
      "outputs": [],
      "stateMutability": "nonpayable",
      "type": "function"
    }
  ],
  "bytecode": "0x60806040523480156200001157600080fd5b5060405162001626380380620016268339818101604052810190620000379190620000f8565b806000806101000a81548173ffffffffffffffffffffffffffffffffffffffff021916908373ffffffffffffffffffffffffffffffffffffffff16021790555060006001819055506014600281905550506200012a565b600080fd5b600073ffffffffffffffffffffffffffffffffffffffff82169050919050565b6000620000c08262000093565b9050919050565b620000d281620000b3565b8114620000de57600080fd5b50565b600081519050620000f281620000c7565b92915050565b6000602082840312156200011157620001106200008e565b5b60006200012184828501620000e1565b91505092915050565b6114ec806200013a6000396000f3fe608060405234801561001057600080fd5b50600436106100885760003560e01c80637adaa21a1161005b5780637adaa21a146101185780637c3a00fd146101225780638b0e9f3f14610140578063fc0c546a1461015e57610088565b806316934fc41461008d578063608e4dd0146100bf57806374a4030f146100db5780637547c7a3146100fc575b600080fd5b6100a760048036038101906100a29190610dac565b61017c565b6040516100b693929190610df2565b60405180910390f35b6100d960048036038101906100d49190610e55565b6101a6565b005b6100e36104fa565b6040516100f39493929190610f40565b60405180910390f35b61011660048036038101906101119190610e55565b61065b565b005b610120610961565b005b61012a610ab8565b6040516101379190610f93565b60405180910390f35b610148610abe565b6040516101559190610f93565b60405180910390f35b610166610ac4565b604051610173919061100d565b60405180910390f35b60036020528060005260406000206000915090508060000154908060010154908060020154905083565b600360003373ffffffffffffffffffffffffffffffffffffffff1673ffffffffffffffffffffffffffffffffffffffff16815260200190815260200160002060030180549050811080156101fb575060008110155b61023a576040517f08c379a000000000000000000000000000000000000000000000000000000000815260040161023190611085565b60405180910390fd5b6102ae62278d00600360003373ffffffffffffffffffffffffffffffffffffffff1673ffffffffffffffffffffffffffffffffffffffff1681526020019081526020016000206004018381548110610295576102946110a5565b5b9060005260206000200154610ae890919063ffffffff16565b4210156102f0576040517f08c379a00000000000000000000000000000000000000000000000000000000081526004016102e790611120565b60405180910390fd5b6000600360003373ffffffffffffffffffffffffffffffffffffffff1673ffffffffffffffffffffffffffffffffffffffff1681526020019081526020016000206003018281548110610346576103456110a5565b5b9060005260206000200154905060008054906101000a900473ffffffffffffffffffffffffffffffffffffffff1673ffffffffffffffffffffffffffffffffffffffff1663a9059cbb33836040518363ffffffff1660e01b81526004016103ae92919061114f565b6020604051808303816000875af11580156103cd573d6000803e3d6000fd5b505050506040513d601f19601f820116820180604052508101906103f191906111b0565b5061040781600154610afe90919063ffffffff16565b6001819055506000600360003373ffffffffffffffffffffffffffffffffffffffff1673ffffffffffffffffffffffffffffffffffffffff168152602001908152602001600020905061045933610b14565b610470828260000154610afe90919063ffffffff16565b816000018190555060008160030184815481106104905761048f6110a5565b5b90600052602060002001819055504281600201819055503373ffffffffffffffffffffffffffffffffffffffff167ff0dbb2abe50e936f0d3720a39c0debe7706007b2c50286a913f24298e9be36ba836040516104ed9190610f93565b60405180910390a2505050565b6000806060806000600360003373ffffffffffffffffffffffffffffffffffffffff1673ffffffffffffffffffffffffffffffffffffffff1681526020019081526020016000206040518060a0016040529081600082015481526020016001820154815260200160028201548152602001600382018054806020026020016040519081016040528092919081815260200182805480156105b957602002820191906000526020600020905b8154815260200190600101908083116105a5575b505050505081526020016004820180548060200260200160405190810160405280929190818152602001828054801561061157602002820191906000526020600020905b8154815260200190600101908083116105fd575b5050505050815250509050600081600001519050600061063033610b6c565b9050600083606001519050600084608001519050838383839850985098509850505050505090919293565b6000811161069e576040517f08c379a00000000000000000000000000000000000000000000000000000000081526004016106959061124f565b60405180910390fd5b8060008054906101000a900473ffffffffffffffffffffffffffffffffffffffff1673ffffffffffffffffffffffffffffffffffffffff1663dd62ed3e33306040518363ffffffff1660e01b81526004016106fa92919061126f565b602060405180830381865afa158015610717573d6000803e3d6000fd5b505050506040513d601f19601f8201168201806040525081019061073b91906112ad565b101561077c576040517f08c379a000000000000000000000000000000000000000000000000000000000815260040161077390611326565b60405180910390fd5b60008054906101000a900473ffffffffffffffffffffffffffffffffffffffff1673ffffffffffffffffffffffffffffffffffffffff166323b872dd3330846040518463ffffffff1660e01b81526004016107d993929190611346565b6020604051808303816000875af11580156107f8573d6000803e3d6000fd5b505050506040513d601f19601f8201168201806040525081019061081c91906111b0565b5061083281600154610ae890919063ffffffff16565b6001819055506000600360003373ffffffffffffffffffffffffffffffffffffffff1673ffffffffffffffffffffffffffffffffffffffff168152602001908152602001600020905060008160000154146108915761089033610b14565b5b6108a8828260000154610ae890919063ffffffff16565b816000018190555080600301829080600181540180825580915050600190039060005260206000200160009091909190915055806004014290806001815401808255809150506001900390600052602060002001600090919091909150554281600201819055503373ffffffffffffffffffffffffffffffffffffffff167f1fdab8a8457aaf782e4b6217d6ffa6f5006eda7e50922dd092b2e1524275d774836040516109559190610f93565b60405180910390a25050565b6000600360003373ffffffffffffffffffffffffffffffffffffffff1673ffffffffffffffffffffffffffffffffffffffff16815260200190815260200160002090506109ad33610b14565b60008054906101000a900473ffffffffffffffffffffffffffffffffffffffff1673ffffffffffffffffffffffffffffffffffffffff1663a9059cbb3383600101546040518363ffffffff1660e01b8152600401610a0c92919061114f565b6020604051808303816000875af1158015610a2b573d6000803e3d6000fd5b505050506040513d601f19601f82011682018060405250810190610a4f91906111b0565b50600081600101819055504281600201819055503373ffffffffffffffffffffffffffffffffffffffff167fe2403640ba68fed3a2f88b7557551d1993f84b99bb10ff833f0cf8db0c5e04868260010154604051610aad9190610f93565b60405180910390a250565b60025481565b60015481565b60008054906101000a900473ffffffffffffffffffffffffffffffffffffffff1681565b60008183610af691906113ac565b905092915050565b60008183610b0c91906113e0565b905092915050565b6000600360008373ffffffffffffffffffffffffffffffffffffffff1673ffffffffffffffffffffffffffffffffffffffff1681526020019081526020016000209050610b6082610b6c565b81600101819055505050565b600080600360008473ffffffffffffffffffffffffffffffffffffffff1673ffffffffffffffffffffffffffffffffffffffff1681526020019081526020016000206040518060a001604052908160008201548152602001600182015481526020016002820154815260200160038201805480602002602001604051908101604052809291908181526020018280548015610c2657602002820191906000526020600020905b815481526020019060010190808311610c12575b5050505050815260200160048201805480602002602001604051908101604052809291908181526020018280548015610c7e57602002820191906000526020600020905b815481526020019060010190808311610c6a575b50505050508152505090506000610ca2826040015142610afe90919063ffffffff16565b90506000610cfa6301e13380610cec6064610cde8760000151610cd060025489610d1d90919063ffffffff16565b610d1d90919063ffffffff16565b610d3390919063ffffffff16565b610d3390919063ffffffff16565b9050610d13818460200151610ae890919063ffffffff16565b9350505050919050565b60008183610d2b9190611414565b905092915050565b60008183610d419190611485565b905092915050565b600080fd5b600073ffffffffffffffffffffffffffffffffffffffff82169050919050565b6000610d7982610d4e565b9050919050565b610d8981610d6e565b8114610d9457600080fd5b50565b600081359050610da681610d80565b92915050565b600060208284031215610dc257610dc1610d49565b5b6000610dd084828501610d97565b91505092915050565b6000819050919050565b610dec81610dd9565b82525050565b6000606082019050610e076000830186610de3565b610e146020830185610de3565b610e216040830184610de3565b949350505050565b610e3281610dd9565b8114610e3d57600080fd5b50565b600081359050610e4f81610e29565b92915050565b600060208284031215610e6b57610e6a610d49565b5b6000610e7984828501610e40565b91505092915050565b600081519050919050565b600082825260208201905092915050565b6000819050602082019050919050565b610eb781610dd9565b82525050565b6000610ec98383610eae565b60208301905092915050565b6000602082019050919050565b6000610eed82610e82565b610ef78185610e8d565b9350610f0283610e9e565b8060005b83811015610f33578151610f1a8882610ebd565b9750610f2583610ed5565b925050600181019050610f06565b5085935050505092915050565b6000608082019050610f556000830187610de3565b610f626020830186610de3565b8181036040830152610f748185610ee2565b90508181036060830152610f888184610ee2565b905095945050505050565b6000602082019050610fa86000830184610de3565b92915050565b6000819050919050565b6000610fd3610fce610fc984610d4e565b610fae565b610d4e565b9050919050565b6000610fe582610fb8565b9050919050565b6000610ff782610fda565b9050919050565b61100781610fec565b82525050565b60006020820190506110226000830184610ffe565b92915050565b600082825260208201905092915050565b7f496e646578206f7574206f6620626f756e647300000000000000000000000000600082015250565b600061106f601383611028565b915061107a82611039565b602082019050919050565b6000602082019050818103600083015261109e81611062565b9050919050565b7f4e487b7100000000000000000000000000000000000000000000000000000000600052603260045260246000fd5b7f4c6f636b696e6720706572696f64206e6f74206f766572000000000000000000600082015250565b600061110a601783611028565b9150611115826110d4565b602082019050919050565b60006020820190508181036000830152611139816110fd565b9050919050565b61114981610d6e565b82525050565b60006040820190506111646000830185611140565b6111716020830184610de3565b9392505050565b60008115159050919050565b61118d81611178565b811461119857600080fd5b50565b6000815190506111aa81611184565b92915050565b6000602082840312156111c6576111c5610d49565b5b60006111d48482850161119b565b91505092915050565b7f416d6f756e74206f6620746f6b656e73206d757374206265206772656174657260008201527f207468616e203000000000000000000000000000000000000000000000000000602082015250565b6000611239602783611028565b9150611244826111dd565b604082019050919050565b600060208201905081810360008301526112688161122c565b9050919050565b60006040820190506112846000830185611140565b6112916020830184611140565b9392505050565b6000815190506112a781610e29565b92915050565b6000602082840312156112c3576112c2610d49565b5b60006112d184828501611298565b91505092915050565b7f416c6c6f77616e6365206973206e6f7420656e6f756768000000000000000000600082015250565b6000611310601783611028565b915061131b826112da565b602082019050919050565b6000602082019050818103600083015261133f81611303565b9050919050565b600060608201905061135b6000830186611140565b6113686020830185611140565b6113756040830184610de3565b949350505050565b7f4e487b7100000000000000000000000000000000000000000000000000000000600052601160045260246000fd5b60006113b782610dd9565b91506113c283610dd9565b92508282019050808211156113da576113d961137d565b5b92915050565b60006113eb82610dd9565b91506113f683610dd9565b925082820390508181111561140e5761140d61137d565b5b92915050565b600061141f82610dd9565b915061142a83610dd9565b925082820261143881610dd9565b9150828204841483151761144f5761144e61137d565b5b5092915050565b7f4e487b7100000000000000000000000000000000000000000000000000000000600052601260045260246000fd5b600061149082610dd9565b915061149b83610dd9565b9250826114ab576114aa611456565b5b82820490509291505056fea26469706673582212201bef20f3ed23b84baca108eae43fd4831df37554e50bb49610ec00580c80d4a364736f6c63430008180033",
  "linkReferences": {},
  "deployedLinkReferences": {}
}