{
  "_format": "hh-sol-artifact-1",
  "contractName": "Staking",
  "sourceName": "contracts/Staking.sol",
  "abi": [
    {
      "inputs": [
        {
          "internalType": "address",
          "name": "_tokenAddress",
          "type": "address"
        }
      ],
      "stateMutability": "nonpayable",
      "type": "constructor"
    },
    {
      "anonymous": false,
      "inputs": [
        {
          "indexed": true,
          "internalType": "address",
          "name": "staker",
          "type": "address"
        },
        {
          "indexed": false,
          "internalType": "uint256",
          "name": "amount",
          "type": "uint256"
        }
      ],
      "name": "RewardPaid",
      "type": "event"
    },
    {
      "anonymous": false,
      "inputs": [
        {
          "indexed": true,
          "internalType": "address",
          "name": "staker",
          "type": "address"
        },
        {
          "indexed": false,
          "internalType": "uint256",
          "name": "amount",
          "type": "uint256"
        }
      ],
      "name": "Staked",
      "type": "event"
    },
    {
      "anonymous": false,
      "inputs": [
        {
          "indexed": true,
          "internalType": "address",
          "name": "staker",
          "type": "address"
        },
        {
          "indexed": false,
          "internalType": "uint256",
          "name": "amount",
          "type": "uint256"
        }
      ],
      "name": "Unstaked",
      "type": "event"
    },
    {
      "inputs": [
        {
          "internalType": "uint256",
          "name": "index",
          "type": "uint256"
        }
      ],
      "name": "getReward",
      "outputs": [],
      "stateMutability": "nonpayable",
      "type": "function"
    },
    {
      "inputs": [],
      "name": "interestRate",
      "outputs": [
        {
          "internalType": "uint256",
          "name": "",
          "type": "uint256"
        }
      ],
      "stateMutability": "view",
      "type": "function"
    },
    {
      "inputs": [
        {
          "internalType": "uint256",
          "name": "value",
          "type": "uint256"
        }
      ],
      "name": "stake",
      "outputs": [],
      "stateMutability": "nonpayable",
      "type": "function"
    },
    {
      "inputs": [],
      "name": "token",
      "outputs": [
        {
          "internalType": "contract IERC20",
          "name": "",
          "type": "address"
        }
      ],
      "stateMutability": "view",
      "type": "function"
    },
    {
      "inputs": [],
      "name": "totalStake",
      "outputs": [
        {
          "internalType": "uint256",
          "name": "",
          "type": "uint256"
        }
      ],
      "stateMutability": "view",
      "type": "function"
    },
    {
      "inputs": [
        {
          "internalType": "uint256",
          "name": "index",
          "type": "uint256"
        }
      ],
      "name": "unstake",
      "outputs": [],
      "stateMutability": "nonpayable",
      "type": "function"
    }
  ],
  "bytecode": "0x60806040523480156200001157600080fd5b506040516200128e3803806200128e8339818101604052810190620000379190620000f8565b806000806101000a81548173ffffffffffffffffffffffffffffffffffffffff021916908373ffffffffffffffffffffffffffffffffffffffff16021790555060006001819055506014600281905550506200012a565b600080fd5b600073ffffffffffffffffffffffffffffffffffffffff82169050919050565b6000620000c08262000093565b9050919050565b620000d281620000b3565b8114620000de57600080fd5b50565b600081519050620000f281620000c7565b92915050565b6000602082840312156200011157620001106200008e565b5b60006200012184828501620000e1565b91505092915050565b611154806200013a6000396000f3fe608060405234801561001057600080fd5b50600436106100625760003560e01c80631c4b774b146100675780632e17de78146100835780637c3a00fd1461009f5780638b0e9f3f146100bd578063a694fc3a146100db578063fc0c546a146100f7575b600080fd5b610081600480360381019061007c9190610b8d565b610115565b005b61009d60048036038101906100989190610b8d565b6102b7565b005b6100a761068b565b6040516100b49190610bc9565b60405180910390f35b6100c5610691565b6040516100d29190610bc9565b60405180910390f35b6100f560048036038101906100f09190610b8d565b610697565b005b6100ff6109a9565b60405161010c9190610c63565b60405180910390f35b600360003373ffffffffffffffffffffffffffffffffffffffff1673ffffffffffffffffffffffffffffffffffffffff1681526020019081526020016000208054905081108015610167575060008110155b6101a6576040517f08c379a000000000000000000000000000000000000000000000000000000000815260040161019d90610cdb565b60405180910390fd5b60006101b233836109cd565b905060008054906101000a900473ffffffffffffffffffffffffffffffffffffffff1673ffffffffffffffffffffffffffffffffffffffff1663a9059cbb33836040518363ffffffff1660e01b815260040161020f929190610d1c565b6020604051808303816000875af115801561022e573d6000803e3d6000fd5b505050506040513d601f19601f820116820180604052508101906102529190610d7d565b5042600560003373ffffffffffffffffffffffffffffffffffffffff1673ffffffffffffffffffffffffffffffffffffffff16815260200190815260200160002083815481106102a5576102a4610daa565b5b90600052602060002001819055505050565b600360003373ffffffffffffffffffffffffffffffffffffffff1673ffffffffffffffffffffffffffffffffffffffff1681526020019081526020016000208054905081108015610309575060008110155b610348576040517f08c379a000000000000000000000000000000000000000000000000000000000815260040161033f90610cdb565b60405180910390fd5b6103b962278d00600460003373ffffffffffffffffffffffffffffffffffffffff1673ffffffffffffffffffffffffffffffffffffffff16815260200190815260200160002083815481106103a05761039f610daa565b5b9060005260206000200154610afa90919063ffffffff16565b4210156103fb576040517f08c379a00000000000000000000000000000000000000000000000000000000081526004016103f290610e25565b60405180910390fd5b60008054906101000a900473ffffffffffffffffffffffffffffffffffffffff1673ffffffffffffffffffffffffffffffffffffffff1663a9059cbb33600360003373ffffffffffffffffffffffffffffffffffffffff1673ffffffffffffffffffffffffffffffffffffffff168152602001908152602001600020848154811061048957610488610daa565b5b90600052602060002001546040518363ffffffff1660e01b81526004016104b1929190610d1c565b6020604051808303816000875af11580156104d0573d6000803e3d6000fd5b505050506040513d601f19601f820116820180604052508101906104f49190610d7d565b50610565600360003373ffffffffffffffffffffffffffffffffffffffff1673ffffffffffffffffffffffffffffffffffffffff168152602001908152602001600020828154811061054957610548610daa565b5b9060005260206000200154600154610b1090919063ffffffff16565b600181905550600360003373ffffffffffffffffffffffffffffffffffffffff1673ffffffffffffffffffffffffffffffffffffffff16815260200190815260200160002081815481106105bc576105bb610daa565b5b9060005260206000200160009055600460003373ffffffffffffffffffffffffffffffffffffffff1673ffffffffffffffffffffffffffffffffffffffff168152602001908152602001600020818154811061061b5761061a610daa565b5b9060005260206000200160009055600560003373ffffffffffffffffffffffffffffffffffffffff1673ffffffffffffffffffffffffffffffffffffffff168152602001908152602001600020818154811061067a57610679610daa565b5b906000526020600020016000905550565b60025481565b60015481565b600081116106da576040517f08c379a00000000000000000000000000000000000000000000000000000000081526004016106d190610eb7565b60405180910390fd5b8060008054906101000a900473ffffffffffffffffffffffffffffffffffffffff1673ffffffffffffffffffffffffffffffffffffffff1663dd62ed3e33306040518363ffffffff1660e01b8152600401610736929190610ed7565b602060405180830381865afa158015610753573d6000803e3d6000fd5b505050506040513d601f19601f820116820180604052508101906107779190610f15565b10156107b8576040517f08c379a00000000000000000000000000000000000000000000000000000000081526004016107af90610f8e565b60405180910390fd5b60008054906101000a900473ffffffffffffffffffffffffffffffffffffffff1673ffffffffffffffffffffffffffffffffffffffff166323b872dd3330846040518463ffffffff1660e01b815260040161081593929190610fae565b6020604051808303816000875af1158015610834573d6000803e3d6000fd5b505050506040513d601f19601f820116820180604052508101906108589190610d7d565b5061086e81600154610afa90919063ffffffff16565b600181905550600360003373ffffffffffffffffffffffffffffffffffffffff1673ffffffffffffffffffffffffffffffffffffffff168152602001908152602001600020819080600181540180825580915050600190039060005260206000200160009091909190915055600460003373ffffffffffffffffffffffffffffffffffffffff1673ffffffffffffffffffffffffffffffffffffffff168152602001908152602001600020429080600181540180825580915050600190039060005260206000200160009091909190915055600560003373ffffffffffffffffffffffffffffffffffffffff1673ffffffffffffffffffffffffffffffffffffffff16815260200190815260200160002042908060018154018082558091505060019003906000526020600020016000909190919091505550565b60008054906101000a900473ffffffffffffffffffffffffffffffffffffffff1681565b600080610a3e600560008673ffffffffffffffffffffffffffffffffffffffff1673ffffffffffffffffffffffffffffffffffffffff1681526020019081526020016000208481548110610a2457610a23610daa565b5b906000526020600020015442610b1090919063ffffffff16565b90506000610aed6301e13380610adf6064610ad1600360008b73ffffffffffffffffffffffffffffffffffffffff1673ffffffffffffffffffffffffffffffffffffffff1681526020019081526020016000208981548110610aa357610aa2610daa565b5b9060005260206000200154610ac360025489610b2690919063ffffffff16565b610b2690919063ffffffff16565b610b3c90919063ffffffff16565b610b3c90919063ffffffff16565b9050809250505092915050565b60008183610b089190611014565b905092915050565b60008183610b1e9190611048565b905092915050565b60008183610b34919061107c565b905092915050565b60008183610b4a91906110ed565b905092915050565b600080fd5b6000819050919050565b610b6a81610b57565b8114610b7557600080fd5b50565b600081359050610b8781610b61565b92915050565b600060208284031215610ba357610ba2610b52565b5b6000610bb184828501610b78565b91505092915050565b610bc381610b57565b82525050565b6000602082019050610bde6000830184610bba565b92915050565b600073ffffffffffffffffffffffffffffffffffffffff82169050919050565b6000819050919050565b6000610c29610c24610c1f84610be4565b610c04565b610be4565b9050919050565b6000610c3b82610c0e565b9050919050565b6000610c4d82610c30565b9050919050565b610c5d81610c42565b82525050565b6000602082019050610c786000830184610c54565b92915050565b600082825260208201905092915050565b7f496e646578206f7574206f6620626f756e647300000000000000000000000000600082015250565b6000610cc5601383610c7e565b9150610cd082610c8f565b602082019050919050565b60006020820190508181036000830152610cf481610cb8565b9050919050565b6000610d0682610be4565b9050919050565b610d1681610cfb565b82525050565b6000604082019050610d316000830185610d0d565b610d3e6020830184610bba565b9392505050565b60008115159050919050565b610d5a81610d45565b8114610d6557600080fd5b50565b600081519050610d7781610d51565b92915050565b600060208284031215610d9357610d92610b52565b5b6000610da184828501610d68565b91505092915050565b7f4e487b7100000000000000000000000000000000000000000000000000000000600052603260045260246000fd5b7f4c6f636b696e6720706572696f64206e6f74206f766572000000000000000000600082015250565b6000610e0f601783610c7e565b9150610e1a82610dd9565b602082019050919050565b60006020820190508181036000830152610e3e81610e02565b9050919050565b7f416d6f756e74206f6620746f6b656e73206d757374206265206772656174657260008201527f207468616e203000000000000000000000000000000000000000000000000000602082015250565b6000610ea1602783610c7e565b9150610eac82610e45565b604082019050919050565b60006020820190508181036000830152610ed081610e94565b9050919050565b6000604082019050610eec6000830185610d0d565b610ef96020830184610d0d565b9392505050565b600081519050610f0f81610b61565b92915050565b600060208284031215610f2b57610f2a610b52565b5b6000610f3984828501610f00565b91505092915050565b7f416c6c6f77616e6365206973206e6f7420656e6f756768000000000000000000600082015250565b6000610f78601783610c7e565b9150610f8382610f42565b602082019050919050565b60006020820190508181036000830152610fa781610f6b565b9050919050565b6000606082019050610fc36000830186610d0d565b610fd06020830185610d0d565b610fdd6040830184610bba565b949350505050565b7f4e487b7100000000000000000000000000000000000000000000000000000000600052601160045260246000fd5b600061101f82610b57565b915061102a83610b57565b925082820190508082111561104257611041610fe5565b5b92915050565b600061105382610b57565b915061105e83610b57565b925082820390508181111561107657611075610fe5565b5b92915050565b600061108782610b57565b915061109283610b57565b92508282026110a081610b57565b915082820484148315176110b7576110b6610fe5565b5b5092915050565b7f4e487b7100000000000000000000000000000000000000000000000000000000600052601260045260246000fd5b60006110f882610b57565b915061110383610b57565b925082611113576111126110be565b5b82820490509291505056fea26469706673582212200761f744dea628941314b7d6a9cace043a921d204261361f64da63d8934beb3c64736f6c63430008180033",
  "linkReferences": {},
  "deployedLinkReferences": {}
}